:100000000C947D000C94D4020C949A000C949A00E9
:100010000C949A000C949A000C949A000C949A00F8
:100020000C949A000C949A000C949A000C949A00E8
:100030000C949A000C949A000C949A000C949A00D8
:100040000C949A000C949A000C949A000C949A00C8
:100050000C949A000C949A000C949A000C949A00B8
:100060000C949A000C949A000600FF0901A1011556
:100070000026FF00750895050900B20201C00403BF
:1000800009042C03770065002E00650061007300F1
:10009000790065006C0065006300740072006F00F9
:1000A0006E006900630073002E0072007500180373
:1000B00048006900640020006500780061006D0060
:1000C00070006C0065001201100100000008C016ED
:1000D000DF05000101020001090222000101008088
:1000E00032090400000103000000092101010001A0
:1000F0002216000705810308006411241FBECFEFFC
:10010000D4E0DEBFCDBF11E0A0E0B1E0E0E2F8E076
:1001100002C005900D92A430B107D9F711E0A4E018
:10012000B1E001C01D92A434B107E1F70E94E500DF
:100130000C940E040C940000CF93DF93EC015091CB
:100140000C01561708F4652F81E08093050140915A
:100150000B01A42FB0E0AA5FBE4F20E030E007C043
:10016000FE01E20FF31F8D9180832F5F3F4F261713
:10017000B8F3460F40930B01561B50930C01862F8A
:10018000DF91CF91089580910C01882319F480911B
:10019000060185B981E080930501109285001092D7
:1001A00084000895FC0180818076803261F4818131
:1001B000813011F0893039F485E080930C01109280
:1001C0000B018FEF089580E00895EF92FF920F9357
:1001D0001F93CF93DF938FE384B984E080937A00F9
:1001E00080EE80937C0080917A00806280937A0018
:1001F00080917A00806880937A0080917A00806490
:1002000080937A000E945401549A20E048EB5BE00E
:1002100003C0CA010197F1F72150D9F784E0809318
:1002200081005498789480EEE82ECCE2D1E0FF244F
:10023000FA9400E315E780910501882379F1109283
:10024000050110920601E0927C0021E010C0CE0171
:100250000197F1F780917900E22FF0E0EA5FFE4F1D
:10026000808380917C008F5F80937C002F5F25309E
:1002700070F3209300018091840090918500909309
:100280000601992311F4F09206010E9483018AEE7F
:1002900091E0FE013197F1F70197D9F7C801019775
:1002A000F1F70E948301C7CFE9E6F0E08081826028
:1002B0008083E89A8BE480931A018AE58093190180
:1002C00008951F93DC01162F8091190184FF07C048
:1002D00080911A0198E8892780931A0103C08AE562
:1002E00080931901912FEBE1F1E08D918193915071
:1002F000E1F78BE191E0612F0E94D0021C5F109327
:1003000019011F9108951F93CF93DF9360912A01E4
:10031000635067FDC4C080912701CCE0D0E0C81BCA
:10032000D109C25DDE4F809126018D3209F0A4C053
:10033000683009F0B2C083EC80930E018AE58093A7
:10034000010110920D018881807641F0CE010E945A
:10035000D200282F8F3F09F47EC084C09A8110926A
:1003600017018981882321F41092180122E06CC0C2
:10037000853019F490932B0166C0863009F04FC088
:100380008B81813041F486EC90E090932901809339
:10039000280122E140C0823041F488ED90E0909342
:1003A00029018093280122E236C08330F9F48A8142
:1003B000882341F48EE790E09093290180932801EF
:1003C00024E029C0813041F482E890E09093290133
:1003D000809328012CE21FC08230E1F48EEA90E085
:1003E000909329018093280128E115C0813241F4BE
:1003F0008AEE90E0909329018093280129E00BC0B8
:10040000823241F488E690E090932901809328019C
:1004100026E101C020E080E480930D0123C08830F4
:1004200021F421E08DE291E011C0893019F490931C
:100430002D0109C08A3011F421E006C08B3019F477
:100440008BE480931A0120E087E191E090932901E9
:100450008093280107C0888187FD2E8180E88093E2
:100460000D0106C08F81882319F48E81821708F050
:10047000822F8093020111C080910D0187FF0DC072
:10048000CE010E94C3008F3F21F48EE180930101D1
:1004900004C0882311F01092020110922A01809169
:1004A000010184FF5AC0809102018F3F09F455C0B9
:1004B000182F893008F018E0811B80930201809189
:1004C0000E0198E8892780930E01112399F18091FC
:1004D0000D0187FF09C08FE091E0612F0E949C0011
:1004E000182F8930A0F526C02091280130912901CC
:1004F00086FF0DC0AFE0B1E080E090E0F901E80FC9
:10050000F91FE491ED9301961817C1F708C0912FD8
:10051000D901EFE0F1E08D9181939150E1F7115015
:10052000812F90E01F5F0196820F931F9093290106
:10053000809328018FE091E0612F0E94D002612F0B
:100540006C5F6C3041F08FEF8093020104C08FEF3D
:10055000809302016EE16093010194E189B184719D
:1005600031F49150D9F710922B0110922501DF91AF
:10057000CF911F910895A82FB92F80E090E041E01E
:1005800050EA609530E009C02D91822797958795B4
:1005900010F084279527305EC8F36F5FA8F30895A5
:1005A000EADF8D939D930895CF93CFB7CF93C395F3
:1005B0004C9BE9F74C9B09C04C9B07C04C9B05C06A
:1005C0004C9B03C04C9B01C0A3C0DF93C09127018B
:1005D000DD27C25DDE4F4C9B02C0DF91EBCF2F9336
:1005E0000F931F9309B12FEF04FB20F94F933F9313
:1005F00019B14FEF012704FB21F93BE031C04E7FD9
:10060000012F19B1216028C0102F4D7F22600000FA
:1006100009B129C04B7F2460012F000019B12BC004
:1006200019B1477F28602AC04F7E09B120612CC0D4
:100630004F7D19B120622FC04F7B09B1206432C0B9
:10064000422709B149934FEF0000102714FB20F90E
:1006500019B11471C9F1297F91F2012704FB21F925
:1006600009B1237F89F2315058F1102714FB22F988
:1006700019B1277E79F2012704FB23F92F7C81F23F
:1006800009B1102714FB24F92F7971F200C019B1B8
:10069000012704FB25F92F7359F200C009B1102777
:1006A00014FB26F9223040F200C019B1012704FBE7
:1006B00027F9243028F64F77206819B10000F9CFC8
:1006C00011E01CBB002719C03B503195C31BD04023
:1006D00011E01CBB0881033CF9F00B34E9F02091D8
:1006E00025011981110F1213EDCF4A81441F0936DC
:1006F00041F10D3211F0013E29F700932C013F9199
:100700004F911F910F912F91DF91CCB3C0FD4FCF2F
:10071000CF91CFBFCF91189520912C01222379F34F
:1007200010912A01112369F534306AF130932A01BE
:1007300020932601109127013BE0311B30932701C4
:1007400022C000912A010130E4F40AE54F7049F417
:100750003091010134FD19C000930101CEE0D1E0D8
:1007600018C03091190134FD10C000931901CAE17D
:10077000D1E00FC02795A8F45150A9F4220F000032
:10078000F9CF4AE503C042ED01C0432FC4E1D0E0F8
:1007900032E01AB114615C9A1AB90BB120E414E189
:1007A0005F93012756E00BB9279520F4515021F4AF
:1007B000220FF9CF012756E000003B5A0BB9D0F2C7
:1007C000279528F4515029F4220F0000F9CF012772
:1007D00056E027950BB920F4515021F4220FF9CFA0
:1007E000012756E0299133230BB921F60B7E109196
:1007F0002B01110FC651D0400BB911F010932501F8
:1008000011E01CBB00611AB11B7E402F4B7E5F9133
:1008100000C000C00BB91AB94BB971CFF894FFCF23
:04082000015AFF007A
:00000001FF
